{
  "_format": "hh-sol-artifact-1",
  "contractName": "MultichainNFT",
  "sourceName": "contracts/MultichainNFT.sol",
  "abi": [
    {
      "inputs": [
        {
          "internalType": "address",
          "name": "_usdcAddress",
          "type": "address"
        }
      ],
      "stateMutability": "nonpayable",
      "type": "constructor"
    },
    {
      "inputs": [
        {
          "internalType": "address",
          "name": "sender",
          "type": "address"
        },
        {
          "internalType": "uint256",
          "name": "balance",
          "type": "uint256"
        },
        {
          "internalType": "uint256",
          "name": "needed",
          "type": "uint256"
        },
        {
          "internalType": "uint256",
          "name": "tokenId",
          "type": "uint256"
        }
      ],
      "name": "ERC1155InsufficientBalance",
      "type": "error"
    },
    {
      "inputs": [
        {
          "internalType": "address",
          "name": "approver",
          "type": "address"
        }
      ],
      "name": "ERC1155InvalidApprover",
      "type": "error"
    },
    {
      "inputs": [
        {
          "internalType": "uint256",
          "name": "idsLength",
          "type": "uint256"
        },
        {
          "internalType": "uint256",
          "name": "valuesLength",
          "type": "uint256"
        }
      ],
      "name": "ERC1155InvalidArrayLength",
      "type": "error"
    },
    {
      "inputs": [
        {
          "internalType": "address",
          "name": "operator",
          "type": "address"
        }
      ],
      "name": "ERC1155InvalidOperator",
      "type": "error"
    },
    {
      "inputs": [
        {
          "internalType": "address",
          "name": "receiver",
          "type": "address"
        }
      ],
      "name": "ERC1155InvalidReceiver",
      "type": "error"
    },
    {
      "inputs": [
        {
          "internalType": "address",
          "name": "sender",
          "type": "address"
        }
      ],
      "name": "ERC1155InvalidSender",
      "type": "error"
    },
    {
      "inputs": [
        {
          "internalType": "address",
          "name": "operator",
          "type": "address"
        },
        {
          "internalType": "address",
          "name": "owner",
          "type": "address"
        }
      ],
      "name": "ERC1155MissingApprovalForAll",
      "type": "error"
    },
    {
      "inputs": [
        {
          "internalType": "address",
          "name": "owner",
          "type": "address"
        }
      ],
      "name": "OwnableInvalidOwner",
      "type": "error"
    },
    {
      "inputs": [
        {
          "internalType": "address",
          "name": "account",
          "type": "address"
        }
      ],
      "name": "OwnableUnauthorizedAccount",
      "type": "error"
    },
    {
      "anonymous": false,
      "inputs": [
        {
          "indexed": true,
          "internalType": "address",
          "name": "account",
          "type": "address"
        },
        {
          "indexed": true,
          "internalType": "address",
          "name": "operator",
          "type": "address"
        },
        {
          "indexed": false,
          "internalType": "bool",
          "name": "approved",
          "type": "bool"
        }
      ],
      "name": "ApprovalForAll",
      "type": "event"
    },
    {
      "anonymous": false,
      "inputs": [
        {
          "indexed": true,
          "internalType": "address",
          "name": "previousOwner",
          "type": "address"
        },
        {
          "indexed": true,
          "internalType": "address",
          "name": "newOwner",
          "type": "address"
        }
      ],
      "name": "OwnershipTransferred",
      "type": "event"
    },
    {
      "anonymous": false,
      "inputs": [
        {
          "indexed": false,
          "internalType": "uint256",
          "name": "newPriceETH",
          "type": "uint256"
        },
        {
          "indexed": false,
          "internalType": "uint256",
          "name": "newPriceUSDC",
          "type": "uint256"
        }
      ],
      "name": "PriceUpdated",
      "type": "event"
    },
    {
      "anonymous": false,
      "inputs": [
        {
          "indexed": true,
          "internalType": "uint256",
          "name": "tokenId",
          "type": "uint256"
        },
        {
          "indexed": true,
          "internalType": "address",
          "name": "creator",
          "type": "address"
        },
        {
          "indexed": false,
          "internalType": "string",
          "name": "promptText",
          "type": "string"
        }
      ],
      "name": "TokenMinted",
      "type": "event"
    },
    {
      "anonymous": false,
      "inputs": [
        {
          "indexed": true,
          "internalType": "address",
          "name": "operator",
          "type": "address"
        },
        {
          "indexed": true,
          "internalType": "address",
          "name": "from",
          "type": "address"
        },
        {
          "indexed": true,
          "internalType": "address",
          "name": "to",
          "type": "address"
        },
        {
          "indexed": false,
          "internalType": "uint256[]",
          "name": "ids",
          "type": "uint256[]"
        },
        {
          "indexed": false,
          "internalType": "uint256[]",
          "name": "values",
          "type": "uint256[]"
        }
      ],
      "name": "TransferBatch",
      "type": "event"
    },
    {
      "anonymous": false,
      "inputs": [
        {
          "indexed": true,
          "internalType": "address",
          "name": "operator",
          "type": "address"
        },
        {
          "indexed": true,
          "internalType": "address",
          "name": "from",
          "type": "address"
        },
        {
          "indexed": true,
          "internalType": "address",
          "name": "to",
          "type": "address"
        },
        {
          "indexed": false,
          "internalType": "uint256",
          "name": "id",
          "type": "uint256"
        },
        {
          "indexed": false,
          "internalType": "uint256",
          "name": "value",
          "type": "uint256"
        }
      ],
      "name": "TransferSingle",
      "type": "event"
    },
    {
      "anonymous": false,
      "inputs": [
        {
          "indexed": false,
          "internalType": "string",
          "name": "value",
          "type": "string"
        },
        {
          "indexed": true,
          "internalType": "uint256",
          "name": "id",
          "type": "uint256"
        }
      ],
      "name": "URI",
      "type": "event"
    },
    {
      "inputs": [
        {
          "internalType": "address",
          "name": "account",
          "type": "address"
        },
        {
          "internalType": "uint256",
          "name": "id",
          "type": "uint256"
        }
      ],
      "name": "balanceOf",
      "outputs": [
        {
          "internalType": "uint256",
          "name": "",
          "type": "uint256"
        }
      ],
      "stateMutability": "view",
      "type": "function"
    },
    {
      "inputs": [
        {
          "internalType": "address[]",
          "name": "accounts",
          "type": "address[]"
        },
        {
          "internalType": "uint256[]",
          "name": "ids",
          "type": "uint256[]"
        }
      ],
      "name": "balanceOfBatch",
      "outputs": [
        {
          "internalType": "uint256[]",
          "name": "",
          "type": "uint256[]"
        }
      ],
      "stateMutability": "view",
      "type": "function"
    },
    {
      "inputs": [
        {
          "internalType": "uint256",
          "name": "tokenId",
          "type": "uint256"
        }
      ],
      "name": "getTokenMetadata",
      "outputs": [
        {
          "components": [
            {
              "internalType": "string",
              "name": "imageURI",
              "type": "string"
            },
            {
              "internalType": "string",
              "name": "promptText",
              "type": "string"
            },
            {
              "internalType": "address",
              "name": "creator",
              "type": "address"
            }
          ],
          "internalType": "struct MultichainNFT.TokenMetadata",
          "name": "",
          "type": "tuple"
        }
      ],
      "stateMutability": "view",
      "type": "function"
    },
    {
      "inputs": [],
      "name": "hello",
      "outputs": [
        {
          "internalType": "string",
          "name": "",
          "type": "string"
        }
      ],
      "stateMutability": "pure",
      "type": "function"
    },
    {
      "inputs": [
        {
          "internalType": "address",
          "name": "account",
          "type": "address"
        },
        {
          "internalType": "address",
          "name": "operator",
          "type": "address"
        }
      ],
      "name": "isApprovedForAll",
      "outputs": [
        {
          "internalType": "bool",
          "name": "",
          "type": "bool"
        }
      ],
      "stateMutability": "view",
      "type": "function"
    },
    {
      "inputs": [],
      "name": "mintPriceETH",
      "outputs": [
        {
          "internalType": "uint256",
          "name": "",
          "type": "uint256"
        }
      ],
      "stateMutability": "view",
      "type": "function"
    },
    {
      "inputs": [],
      "name": "mintPriceUSDC",
      "outputs": [
        {
          "internalType": "uint256",
          "name": "",
          "type": "uint256"
        }
      ],
      "stateMutability": "view",
      "type": "function"
    },
    {
      "inputs": [
        {
          "internalType": "string",
          "name": "_imageURI",
          "type": "string"
        },
        {
          "internalType": "string",
          "name": "_promptText",
          "type": "string"
        },
        {
          "internalType": "uint256",
          "name": "_amount",
          "type": "uint256"
        }
      ],
      "name": "mintWithETH",
      "outputs": [],
      "stateMutability": "payable",
      "type": "function"
    },
    {
      "inputs": [
        {
          "internalType": "string",
          "name": "_imageURI",
          "type": "string"
        },
        {
          "internalType": "string",
          "name": "_promptText",
          "type": "string"
        },
        {
          "internalType": "uint256",
          "name": "_amount",
          "type": "uint256"
        }
      ],
      "name": "mintWithUSDC",
      "outputs": [],
      "stateMutability": "nonpayable",
      "type": "function"
    },
    {
      "inputs": [],
      "name": "owner",
      "outputs": [
        {
          "internalType": "address",
          "name": "",
          "type": "address"
        }
      ],
      "stateMutability": "view",
      "type": "function"
    },
    {
      "inputs": [],
      "name": "renounceOwnership",
      "outputs": [],
      "stateMutability": "nonpayable",
      "type": "function"
    },
    {
      "inputs": [
        {
          "internalType": "address",
          "name": "from",
          "type": "address"
        },
        {
          "internalType": "address",
          "name": "to",
          "type": "address"
        },
        {
          "internalType": "uint256[]",
          "name": "ids",
          "type": "uint256[]"
        },
        {
          "internalType": "uint256[]",
          "name": "values",
          "type": "uint256[]"
        },
        {
          "internalType": "bytes",
          "name": "data",
          "type": "bytes"
        }
      ],
      "name": "safeBatchTransferFrom",
      "outputs": [],
      "stateMutability": "nonpayable",
      "type": "function"
    },
    {
      "inputs": [
        {
          "internalType": "address",
          "name": "from",
          "type": "address"
        },
        {
          "internalType": "address",
          "name": "to",
          "type": "address"
        },
        {
          "internalType": "uint256",
          "name": "id",
          "type": "uint256"
        },
        {
          "internalType": "uint256",
          "name": "value",
          "type": "uint256"
        },
        {
          "internalType": "bytes",
          "name": "data",
          "type": "bytes"
        }
      ],
      "name": "safeTransferFrom",
      "outputs": [],
      "stateMutability": "nonpayable",
      "type": "function"
    },
    {
      "inputs": [
        {
          "internalType": "address",
          "name": "operator",
          "type": "address"
        },
        {
          "internalType": "bool",
          "name": "approved",
          "type": "bool"
        }
      ],
      "name": "setApprovalForAll",
      "outputs": [],
      "stateMutability": "nonpayable",
      "type": "function"
    },
    {
      "inputs": [
        {
          "internalType": "string",
          "name": "newBaseURI",
          "type": "string"
        }
      ],
      "name": "setBaseURI",
      "outputs": [],
      "stateMutability": "nonpayable",
      "type": "function"
    },
    {
      "inputs": [
        {
          "internalType": "bytes4",
          "name": "interfaceId",
          "type": "bytes4"
        }
      ],
      "name": "supportsInterface",
      "outputs": [
        {
          "internalType": "bool",
          "name": "",
          "type": "bool"
        }
      ],
      "stateMutability": "view",
      "type": "function"
    },
    {
      "inputs": [
        {
          "internalType": "uint256",
          "name": "",
          "type": "uint256"
        }
      ],
      "name": "tokenMetadata",
      "outputs": [
        {
          "internalType": "string",
          "name": "imageURI",
          "type": "string"
        },
        {
          "internalType": "string",
          "name": "promptText",
          "type": "string"
        },
        {
          "internalType": "address",
          "name": "creator",
          "type": "address"
        }
      ],
      "stateMutability": "view",
      "type": "function"
    },
    {
      "inputs": [
        {
          "internalType": "address",
          "name": "newOwner",
          "type": "address"
        }
      ],
      "name": "transferOwnership",
      "outputs": [],
      "stateMutability": "nonpayable",
      "type": "function"
    },
    {
      "inputs": [
        {
          "internalType": "uint256",
          "name": "newPriceETH",
          "type": "uint256"
        },
        {
          "internalType": "uint256",
          "name": "newPriceUSDC",
          "type": "uint256"
        }
      ],
      "name": "updatePrices",
      "outputs": [],
      "stateMutability": "nonpayable",
      "type": "function"
    },
    {
      "inputs": [
        {
          "internalType": "address",
          "name": "newUSDCAddress",
          "type": "address"
        }
      ],
      "name": "updateUSDCAddress",
      "outputs": [],
      "stateMutability": "nonpayable",
      "type": "function"
    },
    {
      "inputs": [
        {
          "internalType": "uint256",
          "name": "tokenId",
          "type": "uint256"
        }
      ],
      "name": "uri",
      "outputs": [
        {
          "internalType": "string",
          "name": "",
          "type": "string"
        }
      ],
      "stateMutability": "view",
      "type": "function"
    },
    {
      "inputs": [],
      "name": "usdcToken",
      "outputs": [
        {
          "internalType": "contract IERC20",
          "name": "",
          "type": "address"
        }
      ],
      "stateMutability": "view",
      "type": "function"
    },
    {
      "inputs": [],
      "name": "withdrawETH",
      "outputs": [],
      "stateMutability": "nonpayable",
      "type": "function"
    },
    {
      "inputs": [],
      "name": "withdrawUSDC",
      "outputs": [],
      "stateMutability": "nonpayable",
      "type": "function"
    }
  ],
  "bytecode": "0x6080604052662386f26fc10000600555620186a06006553480156200002357600080fd5b50604051620030cf380380620030cf833981016040819052620000469162000143565b60408051602081019091526000815233906200006281620000df565b506001600160a01b0381166200009257604051631e4fbdf760e01b81526000600482015260240160405180910390fd5b6200009d81620000f1565b50600480546001600160a01b0319166001600160a01b038316179055604080516020810190915260008152600990620000d790826200021c565b5050620002e8565b6002620000ed82826200021c565b5050565b600380546001600160a01b038381166001600160a01b0319831681179093556040519116919082907f8be0079c531659141344cd1fd0a4f28419497f9722a3daafe3b4186f6b6457e090600090a35050565b6000602082840312156200015657600080fd5b81516001600160a01b03811681146200016e57600080fd5b9392505050565b634e487b7160e01b600052604160045260246000fd5b600181811c90821680620001a057607f821691505b602082108103620001c157634e487b7160e01b600052602260045260246000fd5b50919050565b601f82111562000217576000816000526020600020601f850160051c81016020861015620001f25750805b601f850160051c820191505b818110156200021357828155600101620001fe565b5050505b505050565b81516001600160401b0381111562000238576200023862000175565b62000250816200024984546200018b565b84620001c7565b602080601f8311600181146200028857600084156200026f5750858301515b600019600386901b1c1916600185901b17855562000213565b600085815260208120601f198616915b82811015620002b95788860151825594840194600190910190840162000298565b5085821015620002d85787850151600019600388901b60f8161c191681555b5050505050600190811b01905550565b612dd780620002f86000396000f3fe60806040526004361061018a5760003560e01c8063715018a6116100d6578063d8fc063d1161007f578063ef88d7f011610059578063ef88d7f0146104e1578063f242432a14610501578063f2fde38b1461052157600080fd5b8063d8fc063d14610461578063e086e5ec14610476578063e985e9c51461048b57600080fd5b80638f9a8837116100b05780638f9a88371461040b578063a145676514610421578063a22cb4651461044157600080fd5b8063715018a6146103ab5780637d81c4c1146103c05780638da5cb5b146103e057600080fd5b80634e1273f4116101385780635f853338116101125780635f85333814610339578063603168011461034f5780636914db601461037c57600080fd5b80634e1273f4146102d957806355f804b3146103065780635baae42d1461032657600080fd5b806311eac8551161016957806311eac8551461021f57806319ff1d21146102715780632eb2c2d6146102b757600080fd5b8062fdd58e1461018f57806301ffc9a7146101c25780630e89341c146101f2575b600080fd5b34801561019b57600080fd5b506101af6101aa36600461227c565b610541565b6040519081526020015b60405180910390f35b3480156101ce57600080fd5b506101e26101dd3660046122d4565b610576565b60405190151581526020016101b9565b3480156101fe57600080fd5b5061021261020d3660046122f8565b610659565b6040516101b9919061237f565b34801561022b57600080fd5b5060045461024c9073ffffffffffffffffffffffffffffffffffffffff1681565b60405173ffffffffffffffffffffffffffffffffffffffff90911681526020016101b9565b34801561027d57600080fd5b5060408051808201909152600581527f776f726c640000000000000000000000000000000000000000000000000000006020820152610212565b3480156102c357600080fd5b506102d76102d2366004612531565b610701565b005b3480156102e557600080fd5b506102f96102f43660046125db565b6107c7565b6040516101b991906126d7565b34801561031257600080fd5b506102d76103213660046126ea565b6108ad565b6102d7610334366004612727565b6108c5565b34801561034557600080fd5b506101af60065481565b34801561035b57600080fd5b5061036f61036a3660046122f8565b610a4c565b6040516101b99190612794565b34801561038857600080fd5b5061039c6103973660046122f8565b610c3b565b6040516101b993929190612818565b3480156103b757600080fd5b506102d7610d83565b3480156103cc57600080fd5b506102d76103db366004612864565b610d97565b3480156103ec57600080fd5b5060035473ffffffffffffffffffffffffffffffffffffffff1661024c565b34801561041757600080fd5b506101af60055481565b34801561042d57600080fd5b506102d761043c366004612727565b610e63565b34801561044d57600080fd5b506102d761045c36600461288d565b61118c565b34801561046d57600080fd5b506102d7611197565b34801561048257600080fd5b506102d76113df565b34801561049757600080fd5b506101e26104a63660046128c4565b73ffffffffffffffffffffffffffffffffffffffff918216600090815260016020908152604080832093909416825291909152205460ff1690565b3480156104ed57600080fd5b506102d76104fc3660046128f7565b611496565b34801561050d57600080fd5b506102d761051c366004612919565b6114e5565b34801561052d57600080fd5b506102d761053c366004612864565b6115a3565b60008181526020818152604080832073ffffffffffffffffffffffffffffffffffffffff861684529091529020545b92915050565b60007fffffffff0000000000000000000000000000000000000000000000000000000082167fd9b67a2600000000000000000000000000000000000000000000000000000000148061060957507fffffffff0000000000000000000000000000000000000000000000000000000082167f0e89341c00000000000000000000000000000000000000000000000000000000145b8061057057507f01ffc9a7000000000000000000000000000000000000000000000000000000007fffffffff00000000000000000000000000000000000000000000000000000000831614610570565b606061066482611604565b6106cf576040517f08c379a000000000000000000000000000000000000000000000000000000000815260206004820152601f60248201527f55524920717565727920666f72206e6f6e6578697374656e7420746f6b656e0060448201526064015b60405180910390fd5b60096106da8361162a565b6040516020016106eb9291906129d1565b6040516020818303038152906040529050919050565b3373ffffffffffffffffffffffffffffffffffffffff8616811480159061075b575073ffffffffffffffffffffffffffffffffffffffff80871660009081526001602090815260408083209385168352929052205460ff16155b156107b2576040517fe237d92200000000000000000000000000000000000000000000000000000000815273ffffffffffffffffffffffffffffffffffffffff8083166004830152871660248201526044016106c6565b6107bf86868686866116e8565b505050505050565b6060815183511461081157815183516040517f5b059991000000000000000000000000000000000000000000000000000000008152600481019290925260248201526044016106c6565b6000835167ffffffffffffffff81111561082d5761082d612392565b604051908082528060200260200182016040528015610856578160200160208202803683370190505b50905060005b84518110156108a55760208082028601015161088090602080840287010151610541565b82828151811061089257610892612a76565b602090810291909101015260010161085c565b509392505050565b6108b561179c565b60096108c18282612af2565b5050565b806005546108d39190612c3b565b34101561093c576040517f08c379a000000000000000000000000000000000000000000000000000000000815260206004820152601560248201527f496e73756666696369656e74204554482073656e74000000000000000000000060448201526064016106c6565b600880549060019060006109508385612c52565b92505081905550610972338284604051806020016040528060008152506117ef565b60408051606081018252858152602080820186905233828401526000848152600790915291909120815181906109a89082612af2565b50602082015160018201906109bd9082612af2565b5060409182015160029190910180547fffffffffffffffffffffffff00000000000000000000000000000000000000001673ffffffffffffffffffffffffffffffffffffffff90921691909117905551339082907fec2cd236ed6d37bf5a71276ac93889db12834493a090efd543a3d2eca8dcdcc890610a3e90879061237f565b60405180910390a350505050565b60408051606080820183528082526020820152600091810191909152610a7182611604565b610ad7576040517f08c379a000000000000000000000000000000000000000000000000000000000815260206004820152601460248201527f546f6b656e20646f6573206e6f7420657869737400000000000000000000000060448201526064016106c6565b60008281526007602052604090819020815160608101909252805482908290610aff9061297e565b80601f0160208091040260200160405190810160405280929190818152602001828054610b2b9061297e565b8015610b785780601f10610b4d57610100808354040283529160200191610b78565b820191906000526020600020905b815481529060010190602001808311610b5b57829003601f168201915b50505050508152602001600182018054610b919061297e565b80601f0160208091040260200160405190810160405280929190818152602001828054610bbd9061297e565b8015610c0a5780601f10610bdf57610100808354040283529160200191610c0a565b820191906000526020600020905b815481529060010190602001808311610bed57829003601f168201915b50505091835250506002919091015473ffffffffffffffffffffffffffffffffffffffff1660209091015292915050565b600760205260009081526040902080548190610c569061297e565b80601f0160208091040260200160405190810160405280929190818152602001828054610c829061297e565b8015610ccf5780601f10610ca457610100808354040283529160200191610ccf565b820191906000526020600020905b815481529060010190602001808311610cb257829003601f168201915b505050505090806001018054610ce49061297e565b80601f0160208091040260200160405190810160405280929190818152602001828054610d109061297e565b8015610d5d5780601f10610d3257610100808354040283529160200191610d5d565b820191906000526020600020905b815481529060010190602001808311610d4057829003601f168201915b5050506002909301549192505073ffffffffffffffffffffffffffffffffffffffff1683565b610d8b61179c565b610d956000611872565b565b610d9f61179c565b73ffffffffffffffffffffffffffffffffffffffff8116610e1c576040517f08c379a000000000000000000000000000000000000000000000000000000000815260206004820152600f60248201527f496e76616c69642061646472657373000000000000000000000000000000000060448201526064016106c6565b600480547fffffffffffffffffffffffff00000000000000000000000000000000000000001673ffffffffffffffffffffffffffffffffffffffff92909216919091179055565b600081600654610e739190612c3b565b600480546040517f70a082310000000000000000000000000000000000000000000000000000000081523392810192909252919250829173ffffffffffffffffffffffffffffffffffffffff16906370a0823190602401602060405180830381865afa158015610ee7573d6000803e3d6000fd5b505050506040513d601f19601f82011682018060405250810190610f0b9190612c65565b1015610f73576040517f08c379a000000000000000000000000000000000000000000000000000000000815260206004820152601960248201527f496e73756666696369656e7420555344432062616c616e63650000000000000060448201526064016106c6565b600480546040517f23b872dd00000000000000000000000000000000000000000000000000000000815233928101929092523060248301526044820183905273ffffffffffffffffffffffffffffffffffffffff16906323b872dd906064016020604051808303816000875af1158015610ff1573d6000803e3d6000fd5b505050506040513d601f19601f820116820180604052508101906110159190612c7e565b61107b576040517f08c379a000000000000000000000000000000000000000000000000000000000815260206004820152601460248201527f55534443207472616e73666572206661696c656400000000000000000000000060448201526064016106c6565b6008805490600190600061108f8385612c52565b925050819055506110b1338285604051806020016040528060008152506117ef565b60408051606081018252868152602080820187905233828401526000848152600790915291909120815181906110e79082612af2565b50602082015160018201906110fc9082612af2565b5060409182015160029190910180547fffffffffffffffffffffffff00000000000000000000000000000000000000001673ffffffffffffffffffffffffffffffffffffffff90921691909117905551339082907fec2cd236ed6d37bf5a71276ac93889db12834493a090efd543a3d2eca8dcdcc89061117d90889061237f565b60405180910390a35050505050565b6108c13383836118e9565b61119f61179c565b600480546040517f70a08231000000000000000000000000000000000000000000000000000000008152309281019290925260009173ffffffffffffffffffffffffffffffffffffffff909116906370a0823190602401602060405180830381865afa158015611213573d6000803e3d6000fd5b505050506040513d601f19601f820116820180604052508101906112379190612c65565b9050600081116112a3576040517f08c379a000000000000000000000000000000000000000000000000000000000815260206004820152601360248201527f4e6f205553444320746f2077697468647261770000000000000000000000000060448201526064016106c6565b60045473ffffffffffffffffffffffffffffffffffffffff1663a9059cbb6112e060035473ffffffffffffffffffffffffffffffffffffffff1690565b6040517fffffffff0000000000000000000000000000000000000000000000000000000060e084901b16815273ffffffffffffffffffffffffffffffffffffffff9091166004820152602481018490526044016020604051808303816000875af1158015611352573d6000803e3d6000fd5b505050506040513d601f19601f820116820180604052508101906113769190612c7e565b6113dc576040517f08c379a000000000000000000000000000000000000000000000000000000000815260206004820152601460248201527f55534443207472616e73666572206661696c656400000000000000000000000060448201526064016106c6565b50565b6113e761179c565b478061144f576040517f08c379a000000000000000000000000000000000000000000000000000000000815260206004820152601260248201527f4e6f2045544820746f207769746864726177000000000000000000000000000060448201526064016106c6565b60035460405173ffffffffffffffffffffffffffffffffffffffff9091169082156108fc029083906000818181858888f193505050501580156108c1573d6000803e3d6000fd5b61149e61179c565b6005829055600681905560408051838152602081018390527f945c1c4e99aa89f648fbfe3df471b916f719e16d960fcec0737d4d56bd696838910160405180910390a15050565b3373ffffffffffffffffffffffffffffffffffffffff8616811480159061153f575073ffffffffffffffffffffffffffffffffffffffff80871660009081526001602090815260408083209385168352929052205460ff16155b15611596576040517fe237d92200000000000000000000000000000000000000000000000000000000815273ffffffffffffffffffffffffffffffffffffffff8083166004830152871660248201526044016106c6565b6107bf86868686866119d1565b6115ab61179c565b73ffffffffffffffffffffffffffffffffffffffff81166115fb576040517f1e4fbdf7000000000000000000000000000000000000000000000000000000008152600060048201526024016106c6565b6113dc81611872565b600081815260076020526040812080548291906116209061297e565b9050119050919050565b6060600061163783611aac565b600101905060008167ffffffffffffffff81111561165757611657612392565b6040519080825280601f01601f191660200182016040528015611681576020820181803683370190505b5090508181016020015b7fffffffffffffffffffffffffffffffffffffffffffffffffffffffffffffffff017f3031323334353637383961626364656600000000000000000000000000000000600a86061a8153600a850494508461168b57509392505050565b73ffffffffffffffffffffffffffffffffffffffff8416611738576040517f57f447ce000000000000000000000000000000000000000000000000000000008152600060048201526024016106c6565b73ffffffffffffffffffffffffffffffffffffffff8516611788576040517f01a83514000000000000000000000000000000000000000000000000000000008152600060048201526024016106c6565b6117958585858585611b8e565b5050505050565b60035473ffffffffffffffffffffffffffffffffffffffff163314610d95576040517f118cdaa70000000000000000000000000000000000000000000000000000000081523360048201526024016106c6565b73ffffffffffffffffffffffffffffffffffffffff841661183f576040517f57f447ce000000000000000000000000000000000000000000000000000000008152600060048201526024016106c6565b604080516001808252602082018690528183019081526060820185905260808201909252906107bf600087848487611b8e565b6003805473ffffffffffffffffffffffffffffffffffffffff8381167fffffffffffffffffffffffff0000000000000000000000000000000000000000831681179093556040519116919082907f8be0079c531659141344cd1fd0a4f28419497f9722a3daafe3b4186f6b6457e090600090a35050565b73ffffffffffffffffffffffffffffffffffffffff8216611939576040517fced3e100000000000000000000000000000000000000000000000000000000008152600060048201526024016106c6565b73ffffffffffffffffffffffffffffffffffffffff83811660008181526001602090815260408083209487168084529482529182902080547fffffffffffffffffffffffffffffffffffffffffffffffffffffffffffffff001686151590811790915591519182527f17307eab39ab6107e8899845ad3d59bd9653f200f220920489ca2b5937696c31910160405180910390a3505050565b73ffffffffffffffffffffffffffffffffffffffff8416611a21576040517f57f447ce000000000000000000000000000000000000000000000000000000008152600060048201526024016106c6565b73ffffffffffffffffffffffffffffffffffffffff8516611a71576040517f01a83514000000000000000000000000000000000000000000000000000000008152600060048201526024016106c6565b60408051600180825260208201869052818301908152606082018590526080820190925290611aa38787848487611b8e565b50505050505050565b6000807a184f03e93ff9f4daa797ed6e38ed64bf6a1f0100000000000000008310611af5577a184f03e93ff9f4daa797ed6e38ed64bf6a1f010000000000000000830492506040015b6d04ee2d6d415b85acef81000000008310611b21576d04ee2d6d415b85acef8100000000830492506020015b662386f26fc100008310611b3f57662386f26fc10000830492506010015b6305f5e1008310611b57576305f5e100830492506008015b6127108310611b6b57612710830492506004015b60648310611b7d576064830492506002015b600a83106105705760010192915050565b611b9a85858585611bee565b73ffffffffffffffffffffffffffffffffffffffff8416156117955782513390600103611be05760208481015190840151611bd9838989858589611ed0565b50506107bf565b6107bf8187878787876120c2565b8051825114611c3657815181516040517f5b059991000000000000000000000000000000000000000000000000000000008152600481019290925260248201526044016106c6565b3360005b8351811015611da35760208181028581018201519085019091015173ffffffffffffffffffffffffffffffffffffffff881615611d3a5760008281526020818152604080832073ffffffffffffffffffffffffffffffffffffffff8c16845290915290205481811015611d06576040517f03dee4c500000000000000000000000000000000000000000000000000000000815273ffffffffffffffffffffffffffffffffffffffff8a1660048201526024810182905260448101839052606481018490526084016106c6565b60008381526020818152604080832073ffffffffffffffffffffffffffffffffffffffff8d16845290915290209082900390555b73ffffffffffffffffffffffffffffffffffffffff871615611d995760008281526020818152604080832073ffffffffffffffffffffffffffffffffffffffff8b16845290915281208054839290611d93908490612c52565b90915550505b5050600101611c3a565b508251600103611e4b57602083015160009060208401519091508573ffffffffffffffffffffffffffffffffffffffff168773ffffffffffffffffffffffffffffffffffffffff168473ffffffffffffffffffffffffffffffffffffffff167fc3d58168c5ae7397731d063d5bbf3d657854427343f4c083240f7aacaa2d0f628585604051611e3c929190918252602082015260400190565b60405180910390a45050611795565b8373ffffffffffffffffffffffffffffffffffffffff168573ffffffffffffffffffffffffffffffffffffffff168273ffffffffffffffffffffffffffffffffffffffff167f4a39dc06d4c0dbc64b70af90fd698a233a518aa5d07e595d983b8c0526c8f7fb8686604051611ec1929190612c9b565b60405180910390a45050505050565b73ffffffffffffffffffffffffffffffffffffffff84163b156107bf576040517ff23a6e6100000000000000000000000000000000000000000000000000000000815273ffffffffffffffffffffffffffffffffffffffff85169063f23a6e6190611f479089908990889088908890600401612cc9565b6020604051808303816000875af1925050508015611fa0575060408051601f3d9081017fffffffffffffffffffffffffffffffffffffffffffffffffffffffffffffffe0168201909252611f9d91810190612d19565b60015b61202f573d808015611fce576040519150601f19603f3d011682016040523d82523d6000602084013e611fd3565b606091505b508051600003612027576040517f57f447ce00000000000000000000000000000000000000000000000000000000815273ffffffffffffffffffffffffffffffffffffffff861660048201526024016106c6565b805181602001fd5b7fffffffff0000000000000000000000000000000000000000000000000000000081167ff23a6e610000000000000000000000000000000000000000000000000000000014611aa3576040517f57f447ce00000000000000000000000000000000000000000000000000000000815273ffffffffffffffffffffffffffffffffffffffff861660048201526024016106c6565b73ffffffffffffffffffffffffffffffffffffffff84163b156107bf576040517fbc197c8100000000000000000000000000000000000000000000000000000000815273ffffffffffffffffffffffffffffffffffffffff85169063bc197c81906121399089908990889088908890600401612d36565b6020604051808303816000875af1925050508015612192575060408051601f3d9081017fffffffffffffffffffffffffffffffffffffffffffffffffffffffffffffffe016820190925261218f91810190612d19565b60015b6121c0573d808015611fce576040519150601f19603f3d011682016040523d82523d6000602084013e611fd3565b7fffffffff0000000000000000000000000000000000000000000000000000000081167fbc197c810000000000000000000000000000000000000000000000000000000014611aa3576040517f57f447ce00000000000000000000000000000000000000000000000000000000815273ffffffffffffffffffffffffffffffffffffffff861660048201526024016106c6565b803573ffffffffffffffffffffffffffffffffffffffff8116811461227757600080fd5b919050565b6000806040838503121561228f57600080fd5b61229883612253565b946020939093013593505050565b7fffffffff00000000000000000000000000000000000000000000000000000000811681146113dc57600080fd5b6000602082840312156122e657600080fd5b81356122f1816122a6565b9392505050565b60006020828403121561230a57600080fd5b5035919050565b60005b8381101561232c578181015183820152602001612314565b50506000910152565b6000815180845261234d816020860160208601612311565b601f017fffffffffffffffffffffffffffffffffffffffffffffffffffffffffffffffe0169290920160200192915050565b6020815260006122f16020830184612335565b7f4e487b7100000000000000000000000000000000000000000000000000000000600052604160045260246000fd5b604051601f82017fffffffffffffffffffffffffffffffffffffffffffffffffffffffffffffffe016810167ffffffffffffffff8111828210171561240857612408612392565b604052919050565b600067ffffffffffffffff82111561242a5761242a612392565b5060051b60200190565b600082601f83011261244557600080fd5b8135602061245a61245583612410565b6123c1565b8083825260208201915060208460051b87010193508684111561247c57600080fd5b602086015b848110156124985780358352918301918301612481565b509695505050505050565b600082601f8301126124b457600080fd5b813567ffffffffffffffff8111156124ce576124ce612392565b6124ff60207fffffffffffffffffffffffffffffffffffffffffffffffffffffffffffffffe0601f840116016123c1565b81815284602083860101111561251457600080fd5b816020850160208301376000918101602001919091529392505050565b600080600080600060a0868803121561254957600080fd5b61255286612253565b945061256060208701612253565b9350604086013567ffffffffffffffff8082111561257d57600080fd5b61258989838a01612434565b9450606088013591508082111561259f57600080fd5b6125ab89838a01612434565b935060808801359150808211156125c157600080fd5b506125ce888289016124a3565b9150509295509295909350565b600080604083850312156125ee57600080fd5b823567ffffffffffffffff8082111561260657600080fd5b818501915085601f83011261261a57600080fd5b8135602061262a61245583612410565b82815260059290921b8401810191818101908984111561264957600080fd5b948201945b8386101561266e5761265f86612253565b8252948201949082019061264e565b9650508601359250508082111561268457600080fd5b5061269185828601612434565b9150509250929050565b60008151808452602080850194506020840160005b838110156126cc578151875295820195908201906001016126b0565b509495945050505050565b6020815260006122f1602083018461269b565b6000602082840312156126fc57600080fd5b813567ffffffffffffffff81111561271357600080fd5b61271f848285016124a3565b949350505050565b60008060006060848603121561273c57600080fd5b833567ffffffffffffffff8082111561275457600080fd5b612760878388016124a3565b9450602086013591508082111561277657600080fd5b50612783868287016124a3565b925050604084013590509250925092565b6020815260008251606060208401526127b06080840182612335565b905060208401517fffffffffffffffffffffffffffffffffffffffffffffffffffffffffffffffe08483030160408501526127eb8282612335565b91505073ffffffffffffffffffffffffffffffffffffffff60408501511660608401528091505092915050565b60608152600061282b6060830186612335565b828103602084015261283d8186612335565b91505073ffffffffffffffffffffffffffffffffffffffff83166040830152949350505050565b60006020828403121561287657600080fd5b6122f182612253565b80151581146113dc57600080fd5b600080604083850312156128a057600080fd5b6128a983612253565b915060208301356128b98161287f565b809150509250929050565b600080604083850312156128d757600080fd5b6128e083612253565b91506128ee60208401612253565b90509250929050565b6000806040838503121561290a57600080fd5b50508035926020909101359150565b600080600080600060a0868803121561293157600080fd5b61293a86612253565b945061294860208701612253565b93506040860135925060608601359150608086013567ffffffffffffffff81111561297257600080fd5b6125ce888289016124a3565b600181811c9082168061299257607f821691505b6020821081036129cb577f4e487b7100000000000000000000000000000000000000000000000000000000600052602260045260246000fd5b50919050565b60008084546129df8161297e565b600182811680156129f75760018114612a2a57612a59565b7fffffffffffffffffffffffffffffffffffffffffffffffffffffffffffffff0084168752821515830287019450612a59565b8860005260208060002060005b85811015612a505781548a820152908401908201612a37565b50505082870194505b505050508351612a6d818360208801612311565b01949350505050565b7f4e487b7100000000000000000000000000000000000000000000000000000000600052603260045260246000fd5b601f821115612aed576000816000526020600020601f850160051c81016020861015612ace5750805b601f850160051c820191505b818110156107bf57828155600101612ada565b505050565b815167ffffffffffffffff811115612b0c57612b0c612392565b612b2081612b1a845461297e565b84612aa5565b602080601f831160018114612b735760008415612b3d5750858301515b7fffffffffffffffffffffffffffffffffffffffffffffffffffffffffffffffff600386901b1c1916600185901b1785556107bf565b6000858152602081207fffffffffffffffffffffffffffffffffffffffffffffffffffffffffffffffe08616915b82811015612bc057888601518255948401946001909101908401612ba1565b5085821015612bfc57878501517fffffffffffffffffffffffffffffffffffffffffffffffffffffffffffffffff600388901b60f8161c191681555b5050505050600190811b01905550565b7f4e487b7100000000000000000000000000000000000000000000000000000000600052601160045260246000fd5b808202811582820484141761057057610570612c0c565b8082018082111561057057610570612c0c565b600060208284031215612c7757600080fd5b5051919050565b600060208284031215612c9057600080fd5b81516122f18161287f565b604081526000612cae604083018561269b565b8281036020840152612cc0818561269b565b95945050505050565b600073ffffffffffffffffffffffffffffffffffffffff808816835280871660208401525084604083015283606083015260a06080830152612d0e60a0830184612335565b979650505050505050565b600060208284031215612d2b57600080fd5b81516122f1816122a6565b600073ffffffffffffffffffffffffffffffffffffffff808816835280871660208401525060a06040830152612d6f60a083018661269b565b8281036060840152612d81818661269b565b90508281036080840152612d958185612335565b9897505050505050505056fea264697066735822122073219319a5d9b3de77b4317e64310a9e8bd9f241e6b03dd886c3c63da13e9a0e64736f6c63430008180033",
  "linkReferences": {},
  "deployedLinkReferences": {}
}